:03000000020003F8
:0C000300787FE4F6D8FD75811702004AF2
:100126000A0A3F065B4F666D7D077F6F0208000077
:10008F00E4F514F515F516F5171200EBD2B720B7F6
:10009F00F87FE87E03EF1FAC0670011E4C70F62050
:1000AF00B7E70515E5157002051464094514701FAF
:1000BF000517E51770020516240AF8E6F509E4F5A9
:1000CF0014F515E517640A45167004F516F517743F
:0C00DF000A2515F8E6F50820B7AF80FBF5
:1000EB00E4FFFEEE7011EF14600904700AD2B0C287
:1000FB00B18004C2B0D2B174082FF8E6F5A07DE848
:10010B007C03ED1DAA0470011C4A70F6E4F5A00FE8
:0A011B00BF00010EEF64024E70C930
:0101250022B7
:10000F0002008FE493A3F8E493A34003F68001F278
:10001F0008DFF48029E493A3F85407240CC8C333F2
:10002F00C4540F4420C8834004F456800146F6DFC1
:10003F00E4800B0102040810204080900126E47E2A
:10004F00019360BCA3FF543F30E509541FFEE493B6
:10005F00A360010ECF54C025E060A840B8E493A37D
:10006F00FAE493A3F8E493A3C8C582C8CAC583CAA8
:10007F00F0A3C8C582C8CAC583CADFE9DEE780BE60
:0101360000C8
:00000001FF
